:020000040800F2
:1000000000500020C94B0008014B0008034B0008BA
:10001000054B0008074B0008094B000800000000D2
:100020000000000000000000000000000B4B000872
:100030000D4B0008000000000F4B0008114B00089A
:10004000114C0008114C0008114C0008114C00081C
:10005000114C0008114C0008114C0008114C00080C
:10006000114C0008114C0008114C00081D4B0008F1
:10007000114C0008114C00082D4B0008114C0008D1
:10008000114C0008114C0008114C00083D4B0008B1
:100090004D4B0008114C0008114C0008114C000891
:1000A000114C0008114C0008114C0008114C0008BC
:1000B000114C00085D4B0008114C0008114C000861
:1000C000114C0008114C0008114C0008114C00089C
:1000D000114C00086D4B0008114C0008114C000831
:1000E000114C0008114C0008114C000800000000E1
:1000F0000000000000000000000000000000000000
:0C01000000000000000000005FF808F1A3
:1001100010B5054C237833B9044B13B10448AFF341
:1001200000800123237010BDDC01002000000000CE
:10013000FC6C000808B5034B1BB103490348AFF33F
:10014000008008BD00000000E0010020FC6C0008F9
:1001500081F0004102E000BF83F0004330B54FEA78
:1001600041044FEA430594EA050F08BF90EA020FE5
:100170001FBF54EA000C55EA020C7FEA645C7FEA78
:10018000655C00F0E2804FEA5454D4EB5555B8BF9B
:100190006D420CDD2C4480EA020281EA030382EA0C
:1001A000000083EA010180EA020281EA0303362D9E
:1001B00088BF30BD11F0004F4FEA01314FF4801C71
:1001C0004CEA113102D0404261EB410113F0004F83
:1001D0004FEA03334CEA133302D0524263EB43033A
:1001E00094EA050F00F0A780A4F10104D5F1200ED8
:1001F0000DDB02FA0EFC22FA05F2801841F1000133
:1002000003FA0EF2801843FA05F359410EE0A5F106
:1002100020050EF1200E012A03FA0EFC28BF4CF037
:10022000020C43FA05F3C01851EBE37101F00045ED
:1002300007D54FF0000EDCF1000C7EEB00006EEBFA
:100240000101B1F5801F1BD3B1F5001F0CD3490884
:100250005FEA30004FEA3C0C04F101044FEA4452DB
:1002600012F5800F80F09A80BCF1004F08BF5FEA62
:10027000500C50F1000041EB045141EA050130BD42
:100280005FEA4C0C404141EB010111F4801FA4F1E5
:100290000104E9D191F0000F04BF01460020B1FA3A
:1002A00081F308BF2033A3F10B03B3F120020CDA72
:1002B0000C3208DD02F1140CC2F10C0201FA0CF050
:1002C00021FA02F10CE002F11402D8BFC2F1200CB5
:1002D00001FA02F120FA0CFCDCBF41EA0C0190406B
:1002E000E41AA2BF01EB0451294330BD6FEA0404B4
:1002F0001F3C1CDA0C340EDC04F11404C4F120029F
:1003000020FA04F001FA02F340EA030021FA04F3B0
:1003100045EA030130BDC4F10C04C4F1200220FA07
:1003200002F001FA04F340EA0300294630BD21FA45
:1003300004F0294630BD94F0000F83F4801306BF0B
:1003400081F480110134013D4EE77FEA645C18BFFF
:100350007FEA655C29D094EA050F08BF90EA020F96
:1003600005D054EA000C04BF1946104630BD91EA8E
:10037000030F1EBF0021002030BD5FEA545C05D191
:100380004000494128BF41F0004130BD14F58004D0
:100390003CBF01F5801130BD01F0004545F0FE4144
:1003A00041F470014FF0000030BD7FEA645C1ABF79
:1003B000194610467FEA655C1CBF0B46024650EAB0
:1003C000013406BF52EA033591EA030F41F40021DC
:1003D00030BD00BF90F0000F04BF0021704730B562
:1003E0004FF4806404F132044FF000054FF0000137
:1003F00050E700BF90F0000F04BF0021704730B5F8
:100400004FF4806404F1320410F0004548BF4042CC
:100410004FF000013EE700BF42004FEAE2014FEA21
:1004200031014FEA02701FBF12F07F4393F07F4FFC
:1004300081F06051704732F07F4208BF704793F0FF
:100440007F4F04BF41F40021704730B54FF4607412
:1004500001F0004521F000411CE700BF50EA010215
:1004600008BF704730B54FF000050AE050EA0102BE
:1004700008BF704730B511F0004502D5404261EB2E
:1004800041014FF4806404F132045FEA915C3FF46F
:10049000D8AE4FF003025FEADC0C18BF03325FEA0C
:1004A000DC0C18BF033202EBDC02C2F1200300FABD
:1004B00003FC20FA02F001FA03FE40EA0E0021FAE2
:1004C00002F11444BDE600BF70B54FF0FF0C4CF4D0
:1004D000E06C1CEA11541DBF1CEA135594EA0C0F82
:1004E00095EA0C0F00F0DEF82C4481EA030621EABD
:1004F0004C5123EA4C5350EA013518BF52EA0335F8
:1005000041F4801143F4801338D0A0FB02CE4FF0A9
:100510000005E1FB02E506F00042E0FB03E54FF0D9
:100520000006E1FB03569CF0000F18BF4EF0010ED1
:10053000A4F1FF04B6F5007F64F5407404D25FEACD
:100540004E0E6D4146EB060642EAC62141EA555180
:100550004FEAC52040EA5E504FEACE2EB4F1FD0CC2
:1005600088BFBCF5E06F1ED8BEF1004F08BF5FEA40
:10057000500E50F1000041EB045170BD06F00046F2
:1005800046EA010140EA020081EA0301B4EB5C049F
:10059000C2BFD4EB0C0541EA045170BD41F4801197
:1005A0004FF0000E013C00F3AB8014F1360FDEBFBC
:1005B000002001F0004170BDC4F10004203C35DA98
:1005C0000C341BDC04F11404C4F1200500FA05F31B
:1005D00020FA04F001FA05F240EA020001F00042BC
:1005E00021F0004110EBD37021FA04F642EB060132
:1005F0005EEA430E08BF20EAD37070BDC4F10C045C
:10060000C4F1200500FA04F320FA05F001FA04F21F
:1006100040EA020001F0004110EBD37041F100010B
:100620005EEA430E08BF20EAD37070BDC4F1200516
:1006300000FA05F24EEA020E20FA04F301FA05F27E
:1006400043EA020321FA04F001F0004121FA04F226
:1006500020EA020000EBD3705EEA430E08BF20EAF6
:10066000D37070BD94F0000F0FD101F00046400030
:1006700041EB010111F4801F08BF013CF7D041EAB2
:10068000060195F0000F18BF704703F000465200B6
:1006900043EB030313F4801F08BF013DF7D043EA87
:1006A0000603704794EA0C0F0CEA135518BF95EA3D
:1006B0000C0F0CD050EA410618BF52EA4306D1D1C4
:1006C00081EA030101F000414FF0000070BD50EAE3
:1006D000410606BF1046194652EA430619D094EA6D
:1006E0000C0F02D150EA013613D195EA0C0F05D157
:1006F00052EA03361CBF104619460AD181EA0301AB
:1007000001F0004141F0FE4141F470014FF0000062
:1007100070BD41F0FE4141F4780170BD70B54FF0FD
:10072000FF0C4CF4E06C1CEA11541DBF1CEA13557D
:1007300094EA0C0F95EA0C0F00F0A7F8A4EB05045F
:1007400081EA030E52EA03354FEA013100F0888056
:100750004FEA03334FF0805545EA131343EA12631F
:100760004FEA022245EA111545EA10654FEA0026D4
:100770000EF000419D4208BF964244F1FD0404F58D
:10078000407402D25B084FEA3202B61A65EB0305E9
:100790005B084FEA32024FF480104FF4002CB6EBA6
:1007A000020E75EB030E22BFB61A754640EA0C0026
:1007B0005B084FEA3202B6EB020E75EB030E22BF66
:1007C000B61A754640EA5C005B084FEA3202B6EBA7
:1007D000020E75EB030E22BFB61A754640EA9C0066
:1007E0005B084FEA3202B6EB020E75EB030E22BF36
:1007F000B61A754640EADC0055EA060E18D04FEAF4
:10080000051545EA16754FEA06164FEAC30343EA93
:1008100052734FEAC2025FEA1C1CC0D111F4801F60
:100820000BD141EA00014FF000004FF0004CB6E759
:1008300011F4801F04BF01430020B4F1FD0C88BFF8
:10084000BCF5E06F3FF6AFAEB5EB030C04BFB6EB03
:10085000020C5FEA500C50F1000041EB045170BDF6
:100860000EF0004E4EEA113114EB5C04C2BFD4EB23
:100870000C0541EA045170BD41F480114FF0000EA7
:10088000013C90E645EA060E8DE60CEA135594EA23
:100890000C0F08BF95EA0C0F3FF43BAF94EA0C0F26
:1008A0000AD150EA01347FF434AF95EA0C0F7FF49B
:1008B00025AF104619462CE795EA0C0F06D152EAEF
:1008C00003353FF4FDAE1046194622E750EA4106D3
:1008D00018BF52EA43067FF4C5AE50EA41047FF4E4
:1008E0000DAF52EA43057FF4EBAE12E74FEA410247
:1008F000B2F1E04324BFB3F5001CDCF1FE5C0DD97E
:1009000001F0004C4FEAC0024CEA5070B2F1004FC7
:1009100040EB830008BF20F00100704711F0804FCA
:1009200021D113F13872BCBF01F00040704741F48F
:1009300080114FEA5252C2F11802C2F1200C10FA93
:100940000CF320FA02F018BF40F001004FEAC12377
:100950004FEAD32303FA0CFC40EA0C0023FA02F31B
:100960004FEA4303CCE77FEA625307D150EA0133F1
:100970001EBF4FF0FE4040F44000704701F00040C1
:1009800040F0FE4040F40000704700BF034613F8FB
:10099000012B002AFBD1181A013870474FF0FF3C99
:1009A00006E000BF4FF0010C02E000BF4FF0010C69
:1009B0004DF804CD4FEA410C7FEA6C5C4FEA430CE2
:1009C00018BF7FEA6C5C1BD001B050EA410C0CBF31
:1009D00052EA430C91EA030F02BF90EA020F002093
:1009E000704710F1000F91EA030F58BF994208BFFA
:1009F00090422CBFD8176FEAE37040F001007047B7
:100A00004FEA410C7FEA6C5C02D150EA013C07D10D
:100A10004FEA430C7FEA6C5CD6D152EA033CD3D058
:100A20005DF8040B704700BF8446104662468C4652
:100A30001946634600E000BF01B5FFF7B7FF002885
:100A400048BF10F1000F01BD4DF808EDFFF7F4FFAE
:100A50000CBF012000205DF808FB00BF4DF808ED39
:100A6000FFF7EAFF34BF012000205DF808FB00BF5C
:100A70004DF808EDFFF7E0FF94BF012000205DF87E
:100A800008FB00BF4DF808EDFFF7CEFF94BF012033
:100A900000205DF808FB00BF4DF808EDFFF7C4FF2C
:100AA00034BF012000205DF808FB00BF4FEA410C75
:100AB0007FEA6C5C02D150EA013C0AD14FEA430C58
:100AC0007FEA6C5C02D152EA033C02D14FF0000095
:100AD00070474FF0010070474FEA410212F50012D3
:100AE00015D211D56FF47873B3EB625212D94FEA75
:100AF000C12343F0004343EA505311F0004F23FA5F
:100B000002F018BF404270474FF00000704750EAB3
:100B1000013005D111F0004008BF6FF00040704770
:100B20004FF00000704700BF10B504460E4B187818
:100B30004FF47A73B3FBF0F30C4A1068B0FBF3F098
:100B400000F096FE68B90F2C01D901200AE00022BE
:100B500021464FF0FF3000F04BFE034B5C6000205D
:100B600000E0012010BD00BF0000002008000020B0
:100B700008B5074A136843F010031360032000F020
:100B800025FE0020FFF7D0FF03F042FE002008BD45
:100B900000200240034A1168034B1B780B4413608A
:100BA000704700BFA402002000000020014B18681D
:100BB000704700BFA402002038B50446FFF7F6FFD7
:100BC0000546B4F1FF3F02D0044B1B781C44FFF7ED
:100BD000EDFF401BA042FAD338BD00BF000000204B
:100BE00008B5436A9A6A12F0500F03D01B6A1B6B58
:100BF000984708BD9A6A42F400729A621A6892682D
:100C000002F46022B2F5602F03D0184603F09EF87C
:100C1000EFE7DA68002AF8D19A6A22F480729A62C1
:100C20009A6A12F4805FF0D19A6A42F001029A62E5
:100C3000EBE708B5406A03F0EBF808BD704708B56C
:100C4000406A836A43F040038362C36A43F004034B
:100C5000C362FFF7F3FF08BD30B482B000230193F5
:100C600090F82430012B00F08B800246012380F89D
:100C700024304B68062B29D80568686B03EB830387
:100C8000053B1F249C4020EA04000C6804FA03F38F
:100C900003436B630B68092B38D91568E86803EBCD
:100CA00043031E3B07249C4020EA04008C6804FA9E
:100CB00003F30343EB600B68103B012B34D9002096
:100CC000002382F8243002B030BC70470C2B0ED8C1
:100CD0000568286B03EB8303233B1F249C4020EA19
:100CE00004000C6804FA03F303432B63D2E705689E
:100CF000E86A03EB8303413B1F249C4020EA040085
:100D00000C6804FA03F30343EB62C3E71568286930
:100D100003EB430307249C4020EA04008C6804FA98
:100D200003F303432B61C6E713681648834205D0DB
:100D3000936A43F0200393620120C1E7986810F49E
:100D4000000F1BD1986840F4000098600B68102BCE
:100D500001D00020B4E70C4B1B680C49A1FB031326
:100D60009B0C03EB83035900019102E0019B013BC3
:100D70000193019B002BF9D10020A1E700209FE700
:100D80000220A0E7002401400800002083DE1B436E
:100D900030B583B00023019303689A6812F0010F05
:100DA0002ED19A6842F001029A60174B1B68174ACD
:100DB000A2FB03239B0C019302E0019B013B0193E7
:100DC000019B002BF9D10446FFF7F0FE054623688E
:100DD0009B6813F0010F11D1FFF7E8FE401B0228BA
:100DE000F5D9A36A43F01003A362E36A43F0010359
:100DF000E362002384F82430012002E0002000E0B8
:100E0000002003B030BD00BF0800002083DE1B437C
:100E1000F8B50468454DAC425BD0454B9C4258D078
:100E200090F82440012C7ED016460D46044601233E
:100E300080F82430FFF7ACFF074600286ED1A36A84
:100E400023F4706323F0010343F48073A3622268E8
:100E5000374B9A4244D0A36A23F48013A3625368A9
:100E600013F4806F05D0A36A23F4405343F48053F6
:100E7000A362A36A13F4805F48D0E36A23F00603F9
:100E8000E362002384F82430236A2A4A9A62236AA0
:100E9000294ADA62236A294A1A6323686FF0020238
:100EA0001A602268936843F4807393602168334624
:100EB0002A464C31206A00F059FD2268936803F4F9
:100EC0006023B3F5602F24D0936843F480139360BC
:100ED00027E0164B5B6813F4702FA1D0012720E0A8
:100EE000A3F580635B6813F4702FB4D0A36A43F456
:100EF0008013A3620D4B5B6813F4806FB9D0A36AB3
:100F000023F4405343F48053A362B2E70023E36227
:100F1000B7E7936843F4A003936002E0002384F8EA
:100F200024303846F8BD0227FBE700BF002401400B
:100F300000280140E10B0008330C00083F0C0008BA
:100F400038B503689A6812F0010F01D1002038BD4E
:100F500004469A6822F001029A60FFF727FE0546D0
:100F600023689B6813F0010F0ED0FFF71FFE401B94
:100F70000228F5D9A36A43F01003A362E36A43F0A1
:100F80000103E3620120E2E70020E0E700287FD0D0
:100F900038B50446836A002B33D02046FFF7D0FFD4
:100FA000A36A13F010036DD100286BD1A26A22F45A
:100FB000885222F0020242F00202A2626268E169F3
:100FC0000A43E56842EA4502A168B1F5807F21D075
:100FD00001291CD0616901291FD02568696821F4A5
:100FE00069410B436B6021688D682A4B2B4013438A
:100FF0008B60A368B3F5807F20D0012B1ED0002129
:101000001FE0C36280F8243003F052FCC5E74FF4C0
:101010008073DFE74FF48073DCE735B9A1690139EC
:1010200043EA413343F40063D7E7A16A41F020016A
:10103000A162E16A41F00101E162CEE72369013B6F
:1010400019052568EB6A23F470030B43EB622368F0
:101050009968114B0B409A420BD0A36A23F01203FC
:1010600043F01003A362E36A43F00103E36201204B
:101070000DE00023E362A36A23F0030343F00103BE
:10108000A36204E0A36A43F01003A362012038BD09
:1010900001207047FDF7E1FFFE0E1FFFF0B44B6922
:1010A00001229A400468D4F8003223F47C534D6A3C
:1010B00043EA052343F00103C4F800320568D5F87C
:1010C0001C42D3431C40C5F81C42CC69C4B9056816
:1010D000D5F80C421C40C5F80C42CF688D880668D4
:1010E0004C6945EA0745483446F834508F680D8806
:1010F00004684E6945EA0745483604EBC604656056
:10110000CC69012C1ED08C69002C35D10568D5F82E
:1011100004421C40C5F804420C69002C33D1046819
:10112000D4F814522B40C4F814320B6A012B31D07E
:101130000268D2F8003223F00103C2F80032002026
:10114000F0BC70470568D5F80C421443C5F80C4252
:101150000F688D8806684C6945EA0745483446F8AB
:1011600034508F688D8904684E6945EA07454836D2
:1011700004EBC6046560C6E70568D5F8044214436D
:10118000C5F80442C8E70468D4F814321343C4F81D
:101190001432CAE70168D1F81C321A43C1F81C2284
:1011A000C6E7002800F0968038B5044690F83C3039
:1011B00003B3022384F83C302268136823F002034F
:1011C00013602268136843F001031360FFF7EEFC1D
:1011D000054623685A6812F0010F10D1FFF7E6FCAC
:1011E000401B0A28F5D9032084F83C00002384F82A
:1011F0003D3038BD80F83D3003F0A6FBD9E75A6892
:1012000012F0010F5BD0A269012A43D00022E169EC
:10121000012941D022F04002216A01293FD022F069
:101220002002616A01293DD022F01002A16A012941
:101230003BD022F00802E16A012939D022F00402F1
:10124000196821F0FC010A431A60A368E26813439D
:1012500022691343626913436268013A21681343A8
:10126000CB612268136823F001031360FFF79EFC33
:10127000054623685A6812F0010F1CD0FFF796FC50
:10128000401B0A28F5D9032084F83C00002384F889
:101290003D30AEE78022BAE742F04002BCE742F0C0
:1012A0002002BEE742F01002C0E742F00802C2E7A7
:1012B00042F00402C4E75B6813F0010F04D004237A
:1012C00084F83C30012094E700202064012384F856
:1012D0003C308EE7012070470A4699B990F83C30BF
:1012E000DBB2222B7CD090F83C30DBB2422B79D0A1
:1012F00090F83C30DBB2622B76D090F83C30DBB219
:10130000722B73D0012A16D090F83D30012B75D086
:1013100010B4012380F83D30002A41D190F83C30D0
:10132000DBB2322B34D0522B36D0122B19D02223E1
:1013300080F83C3018E090F83C30DBB2322B57D0CC
:1013400090F83C30DBB2522B54D090F83C30DBB2FA
:10135000622B51D090F83C30DBB2722BD4D10220FA
:101360007047422380F83C300021016404686369BF
:1013700043F40F4343F00103636180F83D1042B32F
:101380000268536943F050035361002010BC70475A
:10139000622380F83C30E7E7722380F83C30E3E7D3
:1013A00090F83C30DBB2222B0BD0422B0DD0122B0D
:1013B00003D0322380F83C30D6E7522380F83C300B
:1013C000D2E7622380F83C30CEE7722380F83C30CD
:1013D000CAE70268536943F00A0353610846D5E738
:1013E0000220704702207047022070470220704799
:1013F0000220704702207047022070470220704789
:10140000704708B50268536923F00103536190F8EF
:101410003C30DBB2122B0CD090F83C30DBB2522BBC
:1014200014D0722B16D0422B09D0012380F83C3007
:1014300008E00268536923F40F435361ECE7222369
:1014400080F83C30FFF7DCFF002008BD322380F835
:101450003C30F7E7622380F83C30F3E710B50C46E8
:10146000002978D1436B016804F11B0212018A58EC
:1014700002F004029A60002A6FD1016804F11B0295
:1014800012018A58520D1A60016804F11B02120100
:10149000895801F00201D96001681144496801F0DE
:1014A0000F0119611C6201680A445268C2F30722E5
:1014B000DA61016822011144D1F8B8111975016887
:1014C0001144D1F8B811090A597501681144D1F8CD
:1014D000B811090C997501681144D1F8B811090EB9
:1014E000D97501681144D1F8BC111976016811440D
:1014F000D1F8BC11090A597601681144D1F8BC1120
:10150000090C997601680A44D2F8BC21120EDA76E9
:101510005CBB03682022DA600268536923F00A0387
:10152000536190F83C30DBB2222B01D0322B04D136
:101530000268536923F40F43536174BB90F83C3045
:10154000DBB2622B21D0722B23D0422B16D0012389
:1015500080F83C3015E0836B85E7016804F11B02DD
:1015600012018A58D2085A608EE7036820221A6155
:101570000268536923F050035361D2E7122380F8C5
:101580003C3002F08FFD002010BD322380F83C304B
:10159000F7E7522380F83C30F3E790F83C30DBB2B9
:1015A000622B0BD0722B0DD0522B03D0012380F86D
:1015B0003C30E6E7122380F83C30E2E7222380F853
:1015C0003C30DEE7422380F83C30DAE77047000029
:1015D00070B504460268D168536911F0100F09D044
:1015E00003F00803002B00F0A6801023D3604FF413
:1015F000007500E0002522681169536903F040037B
:1016000011F0100F04D01BB145F480651023136155
:1016100023685A6912F0010F28D09E689968674ABA
:101620000A40996821F06F4121F47E01090C0904F8
:101630006348B04305D06148824202D0614A91427A
:1016400014D199689A6802F400729B6803F0010350
:1016500011F0020F02D10AB9002B6ED02046FFF71D
:10166000D0FE22689168584B0B4393602368DA6878
:101670005B6903F0020312F0030F01D0002B5FD16E
:1016800023681A695B6903F0100312F0030F01D09D
:10169000002B5AD1236C2B432364236898695A6921
:1016A00002F48072596901F4004110F0010F05D075
:1016B00022B119B1226C42F00102226498695A6980
:1016C00002F40072596901F4004110F0020F05D0D4
:1016D00022B119B1226C42F00202226498695A695F
:1016E00002F48062596901F4004110F0040F05D042
:1016F00022B119B1226C42F00402226498695A693D
:1017000002F40062596901F4004110F0700F32D008
:101710008AB381B39A6902F07002302A2ED019D9A7
:10172000502A30D0602A33D0402A20D1226C42F097
:10173000400222641BE000255DE745F4006590E768
:1017400000212046FFF78AFE9AE701212046FFF795
:1017500085FE9FE7102A06D0202A08D1226C42F08D
:101760001002226403E0226C42F0080222649A69AB
:1017700022F070029A61236C7BB970BD226C42F03A
:1017800020022264F3E7226C42F080022264EEE73A
:10179000226C42F480722264E9E7236804225A60D2
:1017A000012384F83C302268536923F40F4323F06B
:1017B0005B0353612046FFF709FFDEE700010008E5
:1017C000010000040000011009050100074AD36868
:1017D00023F4E0631B041B0C000200F4E0601843D8
:1017E00040F0BF6040F40030D060704700ED00E092
:1017F00030B4174BDB68C3F30223C3F10704042C96
:1018000028BF04241D1D062D18D9033B4FF0FF35BA
:1018100005FA04F421EA0401994005FA03F322EAE7
:101820000303194300280BDB0901C9B200F1604032
:1018300000F5614080F8001330BC70470023E5E7F5
:1018400000F00F000901C9B2024B1954F4E700BFC0
:1018500000ED00E014ED00E000F01F02400901235C
:101860009340024A42F82030704700BF00E100E098
:101870000138B0F1807F0AD2064B5860064AF02149
:1018800082F823100020986007221A607047012018
:10189000704700BF10E000E000ED00E0042805D034
:1018A000054A136823F0040313607047024A136863
:1018B00043F004031360704710E000E0704708B580
:1018C000FFF7FCFF08BD70B4066CC56B0124B44083
:1018D0006C60046863604368102B05D003689960EE
:1018E0000368DA6070BC704703689A600368D96067
:1018F000F8E70000002830D010B403460168184A09
:101900000A441848A0FB0202120992001A64164AFF
:10191000DA63022283F82120086820F47F5020F047
:1019200030005A689C682243DC6822431C692243C9
:101930005C6922439C692243DC69224302430A60BA
:1019400000209862D862186358639863012283F874
:10195000212083F8200010BC70470120704700BF91
:10196000F8FFFDBFCDCCCCCC0000024038B590F8DC
:101970002040012C32D0012480F8204090F82140F2
:10198000012C04D0002380F82030022038BD04460A
:10199000022084F821000020A0632568286820F038
:1019A000010028602046FFF78EFFE36A5BB12268E2
:1019B000136843F00E0313602268136843F00103B9
:1019C00013600020E2E72268136823F00403136029
:1019D0002268136843F00A031360EDE70220D5E79D
:1019E00008B590F82130022B03D004238363012033
:1019F00008BD0268136823F00E03136002681368C1
:101A000023F0010313600368194A934214D014327F
:101A100093421FD0143293421ED0143293421ED0F0
:101A2000143293421ED01432934202D04FF080728F
:101A300003E04FF4801200E001220E4B5A600123B4
:101A400080F82130002380F82030436B6BB1984739
:101A50000020CDE71022F0E74FF48072EDE74FF45D
:101A60008052EAE74FF48032E7E70020C0E700BF8A
:101A7000080002400000024038B5C36B1A680468D1
:101A80002568016C04238B40134235D015F0040FF8
:101A900032D0236813F0200F03D1236823F004030E
:101AA00023600368434A934214D01432934218D0FF
:101AB0001432934217D01432934217D01432934207
:101AC00017D01432934202D04FF0806203E04FF4FB
:101AD000800200E00422384B5A60C36A03B1984781
:101AE00038BD4022F7E74FF48062F4E74FF48042BC
:101AF000F1E74FF48022EEE702238B4013423CD003
:101B000015F0020F39D0236813F0200F06D1236897
:101B100023F00A032360012380F821300368254A5B
:101B2000934214D0143293421CD0143293421BD0EF
:101B3000143293421BD0143293421BD0143293427E
:101B400002D04FF0007203E04FF4001200E00222D6
:101B5000194B5A60002380F82030836A002BBFD0D5
:101B60009847BDE72022F3E74FF40072F0E74FF407
:101B70000052EDE74FF40032EAE7082303FA01F1DF
:101B80001142ADD015F0080FAAD0236823F00E0340
:101B90002360026CC16B012303FA02F24A60836383
:101BA00080F82130002380F82030036B002B97D081
:101BB000984795E70800024000000240F0B482B068
:101BC00000263546A1E0002C59D0012C00D1CE686A
:101BD000FF2B68D88446FF2B68D8AC00DCF80020C7
:101BE0000F27A74022EA070206FA04F42243CCF8A2
:101BF00000204A6812F0805F00F086805E4A946997
:101C000044F001049461926902F001020192019A88
:101C1000AC08A71C594A52F8272005F00307BF005B
:101C20004FF00F0C0CFA07FC22EA0C0C544A9042BD
:101C300042D002F5806290427FD002F580629042ED
:101C40007DD002F58062904234D0042235E04D4FC1
:101C5000BC4214D00BD94C4FBC4210D007F5803792
:101C6000BC420CD0A7F58017BC42B1D107E0A7F564
:101C70008017BC4203D007F58037BC42A8D18C68DE
:101C80007CB1012C08D042610826A1E7CE68083655
:101C90009EE7CE680C369BE70261082698E700268F
:101CA00096E7042694E700F1040C94E7A5F10804F4
:101CB000A40093E7032200E00022BA4042EA0C02AB
:101CC00002342E4F47F824204A6812F4803F38D05F
:101CD0002E4C22681A4322604A6812F4003F36D024
:101CE0002A4C62681A4362604A6812F4801F34D03A
:101CF000264CA2681A43A2604A6812F4001F32D030
:101D0000224CE2681343E36001350F2D31D80122E4
:101D1000AA400B6813409A42F6D14C68122CB8D0F6
:101D200095D8022CB2D07FF64EAF032CB7D0112C31
:101D30007FF44EAFCE6804364AE70122BDE70222A7
:101D4000BBE7124C226822EA03022260C4E70F4C70
:101D5000626822EA03026260C6E70C4CA26822EACB
:101D60000302A260C8E7094CE26822EA0303E360C9
:101D7000CAE702B0F0BC704700100240000001400A
:101D80000008014000002110000031100004014053
:101D90008368194201D1002070470120704712B9B1
:101DA00009040161704701617047C3685940C1600F
:101DB000704703685A6912F4806F0DD06FF4806227
:101DC0005A610423036400230363202280F83D202A
:101DD00080F83C300120704700207047F8B5064677
:101DE0000C4617461D461EE02DB1FEF7DFFE069B92
:101DF000C01AA84217D900233363202286F83D2059
:101E000086F83E3086F83C3003201AE033685B6980
:101E100024EA03039BB2B3FA83F35B099F420FD119
:101E2000B5F1FF3FE0D1C4F30743012BEED0336897
:101E30009B6924EA03039BB2B3FA83F35B09EDE7E2
:101E40000020F8BDF8B504460D4616461F4632E0A0
:101E50001A6842F400721A6023686FF480625A6153
:101E60000423236400232363202284F83D2084F884
:101E70003C3001202DE026B1FEF798FEC01BB04299
:101E800019D900232363202284F83D2084F83C30B4
:101E900003201EE023685B6925EA03039BB200333D
:101EA00018BF0123A3B123685A6912F4806FCFD100
:101EB000B6F1FF3FDFD1C5F30743012BEAD023681A
:101EC0009B6925EA03039BB2003318BF0123E9E7AE
:101ED0000020F8BDF0B583B004460D4616461F46F7
:101EE000C36A042B0DD0012B0BD013F5803F08D013
:101EF000036B122B0AD10268136843F480731360DA
:101F000004E02268136843F480731360009733463B
:101F100000224FF001112046FFF760FF58BB2369F4
:101F2000B3F5804F10D1236805F0FE051D613B46D7
:101F3000324615492046FFF785FF0346E0B1236C82
:101F4000042B1ED1012317E0EB11226803F00603D6
:101F500043F0F00313613B4632460C492046FFF73D
:101F600071FF20B1236C042B09D1012304E0236805
:101F7000EDB21D61DBE70323184603B0F0BD032378
:101F8000FAE70323F8E700BF0200010008000100A0
:101F90002DE9F04184B004460D4616461F46C26A3C
:101FA00001680B6843F480630B60042A0DD0012A9A
:101FB0000BD012F5803F08D0036B112B0AD10268B9
:101FC000136843F48073136004E02268136843F4D9
:101FD000807313600097334600224FF001112046B2
:101FE000FFF7FCFE002852D12369B3F5804F12D1D0
:101FF000236845F00105EDB21D613B4632462A4992
:102000002046FFF71FFF0346002841D0236C042B16
:1020100048D101233CE04FEAE51808F006082368A0
:1020200048F0F0021A613B46324620492046FFF74D
:1020300009FF20B1236C042B2ED1012328E0236853
:10204000EDB21D613B46324617492046FFF7FAFEC6
:1020500020B1236C042B21D1012319E0002203922B
:10206000236859690391996903910399196841F4A7
:1020700080711960009733464FF001112046FFF739
:10208000ADFE68B9226848F0F1031361B5E7032398
:10209000184604B0BDE8F0810323F9E70323F7E70E
:1020A0000323F5E70323F3E7020001000800010022
:1020B00070B504460D46164623685B6913F0800F21
:1020C00019D12046FFF775FEB8B9B5F1FF3FF3D03F
:1020D00025B1FEF76BFD801BA842EDD9236C43F0C0
:1020E0002003236400232363202284F83D2084F806
:1020F0003C30032000E0002070BD0120FCE770B5FB
:1021000004460D46164623685B6913F0040F19D187
:102110002046FFF74EFEB8B9B5F1FF3FF3D025B129
:10212000FEF744FD801BA842EDD9236C43F0200349
:10213000236400232363202284F83D2084F83C306C
:10214000032000E0002070BD0120FCE770B50546CB
:102150000C4616462B685A6912F0400F22D15A6974
:1021600012F0100F11D124B1FEF720FD801BA04208
:10217000F0D92B6C43F020032B64202385F83D30ED
:10218000002385F83C30032070BD6FF010025A61C7
:1021900000232B642B63202285F83D2085F83C30FA
:1021A0000120F1E70020EFE7002800F0A28038B519
:1021B000044690F83D30002B4FD0242384F83D3066
:1021C0002268136823F00103136000F0A1FE626827
:1021D0004A4B9A4246D84A4B98428CBF002301236F
:1021E000002B40F08880474BA3FB00239B0C226808
:1021F00053606168414A91423AD8013322681362C0
:1022000061683E4B99423DD8431E4900B3FBF1F350
:102210000133C3F30B03042B38BF04232268D361BB
:10222000E369216A22680B4313602369E16822682D
:102230000B4393606369A16922680B43D3602268F2
:10224000136843F00103136000202064202384F806
:102250003D30206384F83E0038BD80F83C3002F009
:10226000B1FBAAE7284B98428CBF00230123B7E7B4
:102270004FF4967202FB03F3244AA2FB03239B094B
:102280000133BBE7A368BBB9421E01EB4105B2FBBA
:10229000F5F20132C2F30B02B2FA82F2520932BBFA
:1022A000C3B9013801EB4103B0FBF3F30133C3F3CE
:1022B0000B0343F40043B1E7421E01EB810505EB3C
:1022C0008505B2FBF5F20132C2F30B02B2FA82F2DB
:1022D0005209E4E7013801EB810303EB8303B0FB10
:1022E000F3F30133C3F30B0343F4404396E70123B5
:1022F00094E7012070470120AEE700BFA0860100EF
:102300007F841E0083DE1B43FF083D00D34D621017
:102310002DE9F04184B004460E4690461F46FEF774
:1023200045FC94F83D30DBB2202B04D00226304629
:1023300004B0BDE8F08105460090192301225449FC
:102340002046FFF74BFD002840F0998094F83C3080
:10235000012B00F09680012384F83C3023681A6832
:1023600012F0010F03D11A6842F001021A602268CC
:10237000136823F400631360212384F83D30102395
:1023800084F83E3000232364C4F824806785A3F5D5
:102390008033E362638D23852B460A9A31462046BB
:1023A000FFF798FD064660B1236C042B04D100238F
:1023B00084F83C300126BAE7002384F83C30032639
:1023C000B5E70023039323685A6903929B6903933B
:1023D000039B10E0236C042B55D12268136843F44F
:1023E000007313600126A2E72A460A992046FFF7E8
:1023F00086FE00282BD1238D002B32D02A460A9945
:102400002046FFF755FE0028E4D1636A5A1C626239
:1024100022681B781361638D013B9BB26385238D1A
:10242000013B9BB223852268516911F0040FDBD078
:10243000002BD9D0636A591C61621B781361638DCC
:10244000013B9BB26385238D013B2385CCE7236C45
:10245000042B1AD12268136843F400731360012619
:1024600065E72268136843F400731360202384F83F
:102470003D30002384F83E3084F83C3057E7022694
:1024800055E7022653E7032651E703264FE700BF2F
:10249000020010002DE9F04186B004460E46904639
:1024A0001F46FEF783FB94F83D30DBB2202B04D0AF
:1024B0000226304606B0BDE8F0810546009019239B
:1024C00001228F492046FFF789FC002840F0518106
:1024D00094F83C30012B00F04E81012384F83C300D
:1024E00023681A6812F0010F03D11A6842F0010242
:1024F0001A602268136823F400631360222384F8AF
:102500003D30102384F83E3000232364C4F8248037
:102510006785A3F58033E362638D23852B460C9A90
:1025200031462046FFF734FD064660B1236C042B8C
:1025300004D1002384F83C300126BAE7002384F854
:102540003C300326B5E7238D5BB9029323685A69B3
:1025500002929A690292029A1A6842F400721A6010
:102560007FE0012B0FD0022B21D02268136843F4A7
:10257000806313600023059323685A6905929B6961
:102580000593059B6DE02268136823F48063136054
:1025900072B60023039323685A6903929A690392DF
:1025A000039A1A6842F400721A6062B659E022680F
:1025B000136843F40063136072B600230493236826
:1025C0005A6904929A690492049A1A6822F4806201
:1025D0001A6062B645E02A460C992046FFF7B6FD20
:1025E00068B923681A69636A591C61621A70238D7D
:1025F000013B2385638D013B9BB2638531E0236CF6
:10260000202B01D0012654E7032652E700950C9BAE
:1026100000223C492046FFF7E1FB002840F0AD8056
:1026200072B62268136843F40073136023681A6952
:10263000636A591C61621A70238D013B2385638D87
:10264000013B9BB2638562B623681A69636A591CB1
:1026500061621A70238D013B2385638D013B9BB220
:102660006385238D002B7BD0032B4DD8012BB2D05B
:10267000022BCBD000950C9B002222492046FFF76D
:10268000ADFB00287BD12268136823F480631360BC
:1026900072B623681A69636A591C61621A70238DC5
:1026A000013B2385638D013B9BB2638500950C9BA9
:1026B000002214492046FFF791FB002861D12268CF
:1026C000136843F40073136023681A69636A591C22
:1026D00061621A70238D013B2385638D013B9BB2A0
:1026E000638562B623681A69636A591C61621A704D
:1026F000238D013B2385638D013B9BB26385B0E74E
:1027000002001000040001002A460C992046FFF741
:102710001DFDF0B923681A69636A591C61621A7059
:10272000238D013B2385638D013B9BB26385236829
:102730005A6912F0040F94D01A69636A591C6162D5
:102740001A70238D013B2385638D013B9BB263850A
:1027500087E7236C202B01D00126AAE60326A8E6F2
:10276000202384F83D30002384F83E3084F83C3048
:102770009FE602269DE602269BE6032699E60326AF
:1027800097E6032695E600BF2DE9F04385B00446A1
:10279000884691461D46FEF709FA94F83D30DBB2B3
:1027A000202B04D00223184605B0BDE8F08306466E
:1027B00000901923012256492046FFF70FFB0028FD
:1027C00040F09B8094F83C30012B00F0988001236E
:1027D00084F83C3023681A6812F0010F03D11A689C
:1027E00042F001021A602268136823F40063136048
:1027F000242384F83D3000232364A3F58033E3626F
:10280000012735E0A02384F83D3022685369C3F3E3
:1028100040035269C2F3802294F83D10C9B253B903
:102820004AB9A02907D0002DECD0FEF7BFF9801BD4
:10283000A842EAD9E6E7202384F83D3023685A69A4
:1028400012F0020F35D11A6842F400721A60236840
:102850006FF480625A610096192301222C492046A8
:10286000FFF7BCFA002850D17B1C4F453DD21F46D4
:102870002268136843F48073136000962B4600228D
:102880004FF001112046FFF7A9FA002839D123683B
:1028900008F0FE021A61FEF789F9064622685369BC
:1028A000C3F340035269C2F3802294F83D10C9B2C9
:1028B000B5E71A6842F400721A6000230393236894
:1028C0005A6903929B690393039B00961923012283
:1028D0000F492046FFF782FA0346A0B9202284F868
:1028E0003D20002284F83C205DE7202384F83D3021
:1028F000002384F83C30012355E7022353E70223E9
:1029000051E703234FE703234DE703234BE700BFC2
:102910000200100082B0084B1B68084AA2FB032388
:102920005B0A00FB03F0019000BF019B5A1E01925D
:10293000002BF9D102B0704708000020D34D62107F
:1029400070B582B00446036813F0010F2CD0AB4B76
:102950005B6803F00C03042B1DD0A84B5B6803F0ED
:102960000C03082B12D06368B3F5803F41D0002BD5
:1029700055D103F1804303F504331A6822F4803201
:102980001A601A6822F480221A6037E09B4B5B6859
:1029900013F4803FE7D0994B1B6813F4003F03D03A
:1029A0006368002B00F0AE81236813F0020F76D02D
:1029B000924B5B6813F00C0F5FD0904B5B6803F099
:1029C0000C03082B54D02369002B00F08A808C4B19
:1029D00001221A60FEF7EAF80546884B1B6813F0DF
:1029E000020F75D1FEF7E2F8401B0228F5D903204B
:1029F0008BE1824A136843F480331360636843B306
:102A0000FEF7D4F805467D4B1B6813F4003FCBD18D
:102A1000FEF7CCF8401B6428F5D9032075E1B3F527
:102A2000A02F09D0754B1A6822F480321A601A68F8
:102A300022F480221A60E1E703F18043A3F53C33DE
:102A40001A6842F480221A601A6842F480321A60CE
:102A5000D4E7FEF7ABF80546684B1B6813F4003F5C
:102A6000A2D0FEF7A3F8401B6428F5D903204CE15F
:102A7000624B5B6813F4803FA5D1604B1B6813F079
:102A8000020F04D02369012B01D001203DE15B4AF4
:102A9000136823F0F803616943EAC10313602368F4
:102AA00013F0080F32D0A369002B5BD0554B0122E5
:102AB0001A60FEF77BF80546504B5B6A13F0020F75
:102AC00021D1FEF773F8401B0228F5D903201CE141
:102AD0004A4A136823F0F803616943EAC1031360AB
:102AE000DDE7474B00221A60FEF760F80546434BCE
:102AF0001B6813F0020FD2D0FEF758F8401B0228D3
:102B0000F5D9032001E10120FFF704FF236813F04A
:102B1000040F00F09780394BDB6913F0805F33D1ED
:102B2000364BDA6942F08052DA61DB6903F0805398
:102B30000193019B0125344B1B6813F4807F25D042
:102B4000E368012B36D0002B4CD103F1804303F511
:102B500004331A6A22F001021A621A6A22F004028D
:102B60001A622CE0274B00221A60FEF71FF8054678
:102B7000224B5B6A13F0020FC8D0FEF717F8401B18
:102B80000228F5D90320C0E00025D4E71E4A1368C7
:102B900043F480731360FEF709F806461A4B1B686E
:102BA00013F4807FCCD1FEF701F8801B6428F5D99F
:102BB0000320AAE0114A136A43F001031362E36899
:102BC00073B3FDF7F3FF06460C4B1B6A13F0020FBD
:102BD00037D1FDF7EBFF801B41F288339842F3D9E0
:102BE000032092E0052B11D0044B1A6A22F0010257
:102BF0001A621A6A22F004021A62E0E70010024028
:102C0000000042428004424200700040414B1A6A78
:102C100042F004021A621A6A42F001021A62CEE716
:102C2000FDF7C4FF06463B4B1B6A13F0020F08D0AA
:102C3000FDF7BCFF801B41F288339842F3D9032093
:102C400063E0E5B9E369002B5ED0324A526802F0D6
:102C50000C02082A5BD0022B17D02F4B00221A60DF
:102C6000FDF7A4FF04462B4B1B6813F0007F47D0F1
:102C7000FDF79CFF001B0228F5D9032045E0254AFB
:102C8000D36923F08053D361DCE7234B00221A6021
:102C9000FDF78CFF05461F4B1B6813F0007F06D025
:102CA000FDF784FF401B0228F5D903202DE0236A9D
:102CB000B3F5803F1AD017494B6823F47413226A86
:102CC000606A024313434B60134B01221A60FDF705
:102CD0006DFF04460F4B1B6813F0007F0ED1FDF70C
:102CE00065FF001B0228F5D903200EE0094A53684E
:102CF00023F40033A1680B435360DCE7002004E0B9
:102D0000002002E0012000E0002002B070BD0120A0
:102D1000FBE700BF001002406000424210B487B0E1
:102D2000164C94E80F000DF1180C0CE90F00238AE3
:102D3000ADF80430124B5B6803F00C02082A1AD17C
:102D4000C3F38342624412F8102C13F4803F05D180
:102D50000C4800FB02F007B010BC7047084B5B68E2
:102D6000C3F34043634413F8143C074800FB02F0EC
:102D7000B0FBF3F0EFE70448EDE700BF186D000883
:102D80000010024000093D0000127A00594B1B68F8
:102D900003F007038B420CD2564A136823F0070353
:102DA0000B431360136803F007038B4201D001202B
:102DB000704770B5036813F0020F06D04E4A53688F
:102DC00023F0F0038468234353600C4605460368F0
:102DD00013F0010F52D04368012B23D0022B28D0CF
:102DE000454A126812F0020F00F0828042494A6898
:102DF00022F0030213434B60FDF7D8FE06466B68D2
:102E0000012B1DD0022B2AD03B4B5B6813F00C0F1B
:102E100034D0FDF7CBFE801B41F288339842F3D9C2
:102E2000032064E0344A126812F4003FDED101202E
:102E30005DE0314A126812F0007FD7D1012056E0E0
:102E40002D4B5B6803F00C03042B17D0FDF7AEFE8F
:102E5000801B41F288339842F2D9032047E0264B89
:102E60005B6803F00C03082B08D0FDF79FFE801B66
:102E700041F288339842F2D9032038E01D4B1B6899
:102E800003F00703A3420CD91A4A136823F007037F
:102E900023431360136803F00703A34201D001200A
:102EA00025E02B6813F0040F06D0134A536823F46F
:102EB000E063E9680B4353602B6813F0080F07D0F9
:102EC0000D4A536823F46053296943EAC1035360F0
:102ED000FFF724FF084B5B68C3F30313074AD35C77
:102EE000D840074B18600020FDF71EFE002070BD83
:102EF0000120FCE700200240001002402C6D000879
:102F000008000020014B1868704700BF080000202F
:102F100008B5FFF7F7FF044B5B68C3F30223034ACE
:102F2000D35CD84008BD00BF001002403C6D0008D3
:102F300008B5FFF7E7FF044B5B68C3F3C223034AFE
:102F4000D35CD84008BD00BF001002403C6D0008B3
:102F500070B582B00446036813F0010F34D03E4BC5
:102F6000DB6913F0805F48D13B4BDA6942F0805255
:102F7000DA61DB6903F080530193019B0125374B34
:102F80001B6813F4807F3AD0334B1B6A13F44073F1
:102F900011D0626802F440729A420CD02E4A136A31
:102FA00023F440702E4901260E6000260E60106248
:102FB00013F0010F37D1284A136A23F44073616874
:102FC0000B431362002D3FD1236813F0020F06D08C
:102FD000214A536823F44043A1680B43536023689C
:102FE00013F0100F35D01C4A536823F48003E168B6
:102FF0000B435360002002B070BD0025BFE7174AA5
:10300000136843F480731360FDF7D0FD0646134B3D
:103010001B6813F4807FB7D1FDF7C8FD801B6428BF
:10302000F5D90320E7E7FDF7C1FD06460A4B1B6A09
:1030300013F0020FBFD1FDF7B9FD801B41F28833B9
:103040009842F3D90320D6E7D36923F08053D361A4
:10305000BAE70020CFE700BF001002400070004038
:103060004004424210B4036A046A24F0010404627A
:10307000846924F0F00444EA021223F00A030B43AB
:103080008261036210BC704710B4036A23F010031E
:1030900003628469036A24F4704444EA023223F030
:1030A000A00343EA01138261036210BC7047836886
:1030B00023F0700341F0070119438160704710B499
:1030C000846824F47F4442EA03230B432343836050
:1030D00010BC70470268D36843F00103D3600268F4
:1030E000136843F0010313600020704790F83C30F0
:1030F000012B7DD010B50446012380F83C3002231B
:1031000080F83D300268936823F47F4323F077030F
:1031100093600B68402B57D010D9702B3ED01FD82E
:10312000502B47D0602B32D1CA6849680068FFF73E
:10313000ABFF60212068FFF7BAFF28E0102B4DD0CD
:1031400008D9202B4FD0302B21D130210068FFF738
:10315000AEFF1CE0DBB900210068FFF7A8FF16E016
:10316000B3F5805F0ED0B3F5005F10D1CB684A682D
:1031700089680068FFF7A3FF2268936843F48043DF
:10318000936004E00268936823F0070393600123CF
:1031900084F83D30002084F83C0010BDCB684A68BC
:1031A00089680068FFF78BFF2268936843F0770314
:1031B0009360ECE7CA6849680068FFF753FF502145
:1031C0002068FFF774FFE2E7CA6849680068FFF704
:1031D00049FF40212068FFF76AFFD8E71021006807
:1031E000FFF765FFD3E720210068FFF760FFCEE718
:1031F00002207047704770477047704710B504460B
:1032000003681A6912F0020F11D0DA6812F0020F87
:103210000DD06FF002021A610123037703689B69E6
:1032200013F0030F70D0FFF7E6FF00232377236826
:103230001A6912F0040F12D0DA6812F0040F0ED0DF
:103240006FF004021A610223237723689B6913F449
:10325000407F5FD02046FFF7CEFF0023237723680F
:103260001A6912F0080F12D0DA6812F0080F0ED0A7
:103270006FF008021A61042323772368DB6913F0D7
:10328000030F4ED02046FFF7B6FF002323772368B5
:103290001A6912F0100F12D0DA6812F0100F0ED067
:1032A0006FF010021A61082323772368DB6913F497
:1032B000407F3DD02046FFF79EFF00232377236801
:1032C0001A6912F0010F03D0DA6812F0010F36D13B
:1032D00023681A6912F0800F03D0DA6812F0800FA9
:1032E00034D123681A6912F0400F03D0DA6812F063
:1032F000400F32D123681A6912F0200F03D0DA6828
:1033000012F0200F30D110BDFFF774FF2046FFF7F9
:1033100073FF8AE72046FFF76DFF2046FFF76CFF3B
:103320009BE72046FFF766FF2046FFF765FFACE707
:103330002046FFF75FFF2046FFF75EFFBDE76FF017
:1033400001021A61204600F0CBFFC1E76FF0800256
:103350001A61204600F08DF8C3E76FF040021A6151
:103360002046FFF74AFFC5E76FF020021A612046AA
:1033700000F07EF8C7E7000003681B4A90420AD0BD
:10338000B0F1804F07D0A2F59432904203D002F5FD
:103390008062904203D123F070034A681343124ABB
:1033A00090420AD0B0F1804F07D0A2F594329042FB
:1033B00003D002F58062904203D123F44073CA68BF
:1033C000134323F080034A69134303608B68C3628D
:1033D0000B688362044B984202D00123436170471B
:1033E0000B690363F9E700BF002C0140A8B110B5D9
:1033F000044690F83D305BB1022384F83D30211D36
:103400002068FFF7B9FF012384F83D30002010BD8C
:1034100080F83C3001F0FCFAEEE70120704790F8AC
:103420003C30012B22D030B4012280F83C20022312
:1034300080F83D300468636823F0700363600468BB
:1034400063680D682B4363600468A36823F08003FE
:10345000A3600468A36849680B43A36080F83D201B
:10346000002380F83C30184630BC7047022070477B
:10347000704770470268D36823F0C003D3602023ED
:1034800080F8393070470268D36823F49073D360B2
:103490000268536923F001035361202380F83A3016
:1034A000704790F83930DBB2212B2AD18368B3F50D
:1034B000805F16D0036A5A1C02621A7803685A6049
:1034C000C38C013B9BB2C384EBB90268D36823F081
:1034D0008003D3600268D36843F04003D3600020C8
:1034E0007047036A1B880268C3F3080353600369CB
:1034F0001BB9036A02330362E2E7036A0133036222
:10350000DEE7022070470020704700002DE9F843F5
:1035100005460268136923F44053C1680B431361E5
:10352000836802691343426913430168CA6822F43D
:10353000B05222F00C021343CB600268536923F4AB
:10354000407381690B4353610268594B9A4257D0CB
:10355000FFF7DEFC00EB800000EB80006C68A4004D
:10356000B0FBF4F4534FA7FB043464092601FFF7C2
:10357000CFFC00EB800000EB80006C68A400B0FB87
:10358000F4F9FFF7C5FC00EB800000EB80006C68ED
:10359000A400B0FBF4F4A7FB043464094FF0640802
:1035A00008FB149424013234A7FB0434640904F0AA
:1035B000F0043444FFF7ACFC00EB800000EB80002B
:1035C0006E68B600B0FBF6F6FFF7A2FC00EB8000D9
:1035D00000EB80006B689B00B0FBF3F0A7FB0030B2
:1035E000400908FB10684FEA081808F13208A7FBE9
:1035F0000837C7F343172B6827449F60BDE8F8835B
:10360000FFF796FC00EB800000EB80006C68A400E4
:10361000B0FBF4F4274FA7FB043464092601FFF73D
:1036200087FC00EB800000EB80006C68A400B0FB1E
:10363000F4F9FFF77DFC00EB800000EB80006C6884
:10364000A400B0FBF4F4A7FB043464094FF0640851
:1036500008FB149424013234A7FB0434640904F0F9
:10366000F0043444FFF764FC00EB800000EB8000C2
:103670006E68B600B0FBF6F6FFF75AFC00EB800070
:1036800000EB80006B689B00B0FBF3F0A7FB003001
:10369000400908FB10684FEA081808F13208A7FB38
:1036A0000837C7F343172B6827449F60A6E700BF7E
:1036B000003801401F85EB5158B310B5044690F80F
:1036C00039300BB3242384F839302268D36823F4CB
:1036D0000053D3602046FFF719FF2268136923F4D3
:1036E000904313612268536923F02A0353612268CF
:1036F000D36843F40053D3600020E063202384F8B0
:10370000393084F83A3010BD80F8383001F0A0F933
:10371000D8E701207047000038B590F83940E4B28E
:10372000202C31D1002931D0002A31D090F8383006
:10373000012B2FD013460446012280F83820016265
:103740008384C3840025C563212280F83920026B5D
:1037500011489062226B1148D062226B10481063AE
:10376000226B556322680432206BFEF7FFF8236852
:103770006FF040021A6084F838502268536943F0B1
:1037800080035361284600E0022038BD0120FCE799
:103790000120FAE70220F8E7A5370008F137000812
:1037A0009B38000808B5436A0268126812F0200FBF
:1037B0000CD10022DA8419684A6922F080024A6139
:1037C0001A68D36843F04003D36008BD184600F080
:1037D00085FDFAE708B50168CB6823F04003CB60AC
:1037E000202380F8393000F079FD002008BD7047B3
:1037F00008B5406AFFF7FBFF08BD704708B590F8B1
:103800003A30DBB2222B45D18368B3F5805F0ED00E
:10381000036903BB03685A68836A591C81621A7082
:10382000C38D013B9BB2C385F3B1002033E0826AB4
:10383000036943B903685B68C3F308031380836AB1
:1038400002338362ECE703685B68DBB21380836A50
:1038500001338362E4E703685B68826A511C81621A
:1038600003F07F031370DBE70268D36823F02003C3
:10387000D3600268D36823F48073D360026853690D
:1038800023F001035361202380F83A30FFF7B5FF9E
:10389000002000E0022008BD704710B5446A23688C
:1038A0005A6994F83930DBB2212B10D023685A6959
:1038B00002F0400294F83A30DBB2222B11D0E36BD5
:1038C00043F01003E3632046FFF7E6FF10BD02F06C
:1038D0008002002AEAD00023E3842046FFF7CAFDD5
:1038E000E4E7002AEBD00023E3852046FFF7CBFD79
:1038F000E5E7000010B5044602681368D168526914
:1039000013F00F0005D113F0200F02D011F0200F9B
:1039100053D1002867D012F0010202D111F4907F38
:1039200061D013F0010F06D011F4807F03D0E06B5B
:1039300040F00100E06313F0040F04D01AB1E06B13
:1039400040F00200E06313F0020F04D01AB1E06B04
:1039500040F00400E06313F0080F04D01AB1E26BEA
:1039600042F00802E263E26B002A48D013F0200F15
:1039700002D011F0200F24D123685B6903F04003CB
:10398000E26B12F0080F00D13BB32046FFF77BFD3E
:1039900023685A6912F0400F1BD05A6922F0400286
:1039A0005A61636B8BB11A4A5A63606BFEF718F861
:1039B00028B3606B436B984721E02046FFF71EFF5A
:1039C0001DE02046FFF71AFFD6E72046FFF764FF09
:1039D00015E02046FFF760FF11E02046FFF75CFF8F
:1039E0000023E3630BE013F0800F02D011F0800F8F
:1039F00006D113F0400F02D011F0400F04D110BDDA
:103A00002046FFF74EFDFAE72046FFF7E3FEF6E714
:103A1000153A000808B5406A0023C385C384FFF740
:103A20003BFF08BD90F8393090F83A0018437047D2
:103A30002DE9F04389B0364B9A6942F010029A6141
:103A40009A6902F010020092009A9A6942F02002EC
:103A50009A619A6902F020020192019A9A6942F0F1
:103A600004029A619A6902F004020292029A9A6927
:103A700042F008029A619B6903F008030393039BD9
:103A8000DFF8949000224FF460414846FEF787F932
:103A9000204F002201213846FEF781F9DFF87C80B3
:103AA000002202214046FEF77AF94FF46043049366
:103AB00001260596002406940225079504A9484688
:103AC000FEF77CF8049605960694079504A93846F7
:103AD000FEF774F8049505960694079504A94046E8
:103AE000FEF76CF848F2180304930594069404A9B1
:103AF0004046FEF763F84FF401430493059406949F
:103B000004A93846FEF75AF809B0BDE8F08300BFB3
:103B1000001002400008014000100140000C01406C
:103B200000B583B00E4B5A6942F001025A615B69DD
:103B300003F001030193019B002211460B20FDF7C6
:103B400057FE0B20FDF788FE002211460E20FDF7E0
:103B50004FFE0E20FDF780FE03B05DF804FB00BFB2
:103B60000010024008B50B480B4B03600323436071
:103B700000238360C3604FF4802202614FF4A002EF
:103B800042618361C361036243628362C362FDF782
:103B900008FB08BDEC0300200064004008B508489D
:103BA000084B03604FF41643436000238360C360F7
:103BB00003610C2242618361C361FFF77DFD08BD93
:103BC0006C0600200038014030B587B00F4C104B18
:103BD000236048F6A04363600025A5603123E360BD
:103BE0002561A5612046FFF701FC06A94FF480532B
:103BF00041F8103D2046FFF779FA00950195694696
:103C00002046FFF70CFC07B030BD00BF6004002069
:103C1000000400402DE9F04184B0254C254B236081
:103C20004FF48073A3600126E660002363614FF4C4
:103C30006022E2616360062525612046FDF7A6F952
:103C40004FF00408CDF80480029603950DEB0801AF
:103C50002046FDF701F805270197022302930DEB9B
:103C600008012046FCF7F8FF0195032602960DEBAC
:103C700008012046FCF7F0FF07230193CDF80880E8
:103C80000DEB08012046FCF7E7FF0823019302979C
:103C90000DEB08012046FCF7DFFF019602950DEBC6
:103CA00008012046FCF7D8FF04B0BDE8F08100BF52
:103CB000500500200024014008B50948094B036065
:103CC000094B436000238360C3604FF4804202616C
:103CD00043618361C3610362FEF766FA08BD00BFFA
:103CE0004403002000580040A086010030B58BB08E
:103CF000134C144B23631C33636300250595069511
:103D00000123079300950195029503950495089367
:103D10000E23099369462046FDF7C0F9236B40F254
:103D200021321A60236B084A5A60236BDD60236BD3
:103D300004229A60236B02221A610BB030BD00BFCF
:103D4000EC030020F801002000000818F0B44FF444
:103D5000967225E02B4951F822002B4B1C6C204415
:103D60001864501C51F820005C6C20445864901C6E
:103D700051F820009C6C20449864D01C51F820001D
:103D8000DC6C2044D864101D51F820001C6D2044C8
:103D90001865501D51F82010586D014459650632C0
:103DA00040F252239A42D5DD174B1E6C174FA7FBEA
:103DB000062676091E645D6CA7FB05256D095D640A
:103DC0009C6CA7FB042464099C64D86CA7FB0020AE
:103DD0004009D864196DA7FB0121490919655A6D7D
:103DE000A7FB027252095A65A3F85860A3F85A500B
:103DF000A3F85C40A3F85E00A3F86010A3F862206B
:103E0000F0BC704760070020F80100201F85EB51CF
:103E10000022B2F5937F2BDC10B4164951F8220032
:103E2000154B1C6C20441864501C51F820005C6C2D
:103E300020445864901C51F820009C6C20449864E5
:103E4000D01C51F82000DC6C2044D864101D51F8BF
:103E500020001C6D20441865501D51F82010586D2D
:103E6000014459650632B2F5937FD6DD10BC704728
:103E7000704700BF60070020F801002030B595B002
:103E800001220A924FF480330B9300240C940E927B
:103E90000225119512934FF4E01313930AA8FEF72D
:103EA0004FFD0F230593069507944FF48063089305
:103EB0000994294605A8FEF769FF01954FF40043D0
:103EC000039301A8FFF744F8FFF71CF8084BA3FB86
:103ED00000308009FDF7CCFC0420FDF7DFFC224612
:103EE00021464FF0FF30FDF783FC15B030BD00BF19
:103EF000D34D62100000000008B50C282CD00ED85D
:103F000004281CD006D908282DD00A2806D11C4B1D
:103F1000198003E0022801D11A4B198008BD1A2824
:103F20001DD007D9202821D08428F7D1164BA3F81B
:103F30006610F3E71228F1D1144B1980EEE708461A
:103F4000FCF758FA0CA3D3E90023FCF7BDFAFCF701
:103F5000CDFC0F4B1860E1E70E4B1980DEE70A4BF2
:103F6000A3F86810DAE70C4B1980D7E7064BA3F8E3
:103F70006610D3E7AFF30080FCA9F1D24D62503F49
:103F8000B602002098030020F8010020B8020020AB
:103F900024030020AC060020FA10002010B40E4BC1
:103FA00040F221321A605A600021D96004229A60DE
:103FB0001A610A4B40F2251018605860D9609A6067
:103FC00002241C61064B186043F244205860D960FB
:103FD0009A601C6110BC7047440400203C0600201D
:103FE0008005002000B583B0FCF7C2FDFFF746FF57
:103FF000FFF71EFDFFF794FDFFF7B4FDFFF7CEFDC1
:10400000FFF7E2FDFFF706FEFFF756FE4FF47A607A
:10401000FCF7D2FDFFF76AFEFFF7C0FF0024009413
:10402000234622461849194800F062FB4FF41672E5
:1040300017491848FCF7ECFE1748FFF74BF82146E4
:104040001648FDF749F9164D22464FF4005128460F
:10405000FDF7A5FE4FF4FA70FCF7AEFD01224FF418
:1040600000512846FDF79BFE4FF4FA70FCF7A4FDC3
:1040700022464FF400512846FDF791FE4FF4FA70A6
:10408000FCF79AFDFEE700BFDC100020440300208F
:10409000600700205005002060040020EC03002091
:1040A00000100140F8B50546854E012386F86A30B8
:1040B0004FF400518348FDF778FE686B047C476835
:1040C000F766002305E0C218117D7F4AD154013301
:1040D000DBB2A342F7D34368DB0CB3F5207F15D0E6
:1040E000B3F5407F6DD040F20232934200F0D480AD
:1040F000734CD4F898300133C4F898300021284626
:10410000FDF7EAF8002384F86A30F8BD8268042AD3
:10411000E6D1C7F3C2276D4B1F706B4B1B7803BBF7
:10412000674B0022A3F87020012283F87220664AB0
:1041300053781B0203F4E06392781343644A1380BC
:1041400003230BE05E49B1F870205F48C65C61480C
:1041500086540132A1F870200133DBB2A342F1D3BF
:10416000C6E7574A92F872209342C1D10132544BAC
:1041700083F8722001260DE0514BB3F87030544A99
:104180001288013A9342B3D001334D4AA2F87030FD
:104190000136F6B2A642ABD2494BB3F870304A4A68
:1041A000925D4C49CA5403F003010329E4D19F1ED8
:1041B0004848013BC15C42EA0121C05DFFF79CFE1B
:1041C000DAE78268042A8ED13D4B012283F87320FE
:1041D000002305E03C4AD15C3F4AD1540133DBB2B5
:1041E000072BF7D93C4B1B780A3B032B80D8DFE821
:1041F00003F00215293E384A517893781B0243EAAE
:104200000143D1780B432E494B67507993791B02B8
:1042100043EA0043D27913438B6769E72E4A51780A
:1042200093781B0243EA0143D1780B432449CB67BF
:10423000507993791B0243EA0043D2791343C1F8C2
:10424000803055E7244A517893781B0243EA0143B2
:10425000D1780B431A49C1F88430507993791B0205
:1042600043EA0043D2791343C1F8883040E71A4A41
:10427000517893781B0243EA0143D1780B431049EC
:10428000C1F88C30507993791B0243EA0043D2790C
:104290001343C1F890302BE78368042B7FF428AFD9
:1042A000094B59789A7842EA01220549A1F89420ED
:1042B0001A795B7943EA0223A1F8963018E700BF28
:1042C000F801002000100140D0100020A2040020BE
:1042D000400400209C030020C41000207047000010
:1042E00030B589B0814CB4F864300133A4F864303F
:1042F00008217F48FDF74CFD7E4D28704FF48071FA
:104300007D48FDF745FD84F89C007C4BB3F90030F7
:10431000B4F864200592B4F8622004922A780392DB
:10432000B4F868200292764AB2F900200192754AE8
:10433000B2F90020009201227349744801F0E6F8B6
:104340007348FFF76FFB2028FAD1704C2046FCF72A
:104350001DFB82B221466E48FFF7DEF9634B93F8EE
:104360009D3023B9614B93F87330012B41D0694BD9
:104370001B885E4CB4F864200792B4F86020069263
:1043800094F89C200592B4F85C200492B4F85A206A
:104390000392B4F8582002925F4A128801925F4A51
:1043A0001288009202225E495E4801F0AFF894F84C
:1043B0009D30012B4AD05C4C21465C4800F0F3F95B
:1043C000B4F90C204D4B1A80B4F90E204D4B1A80D5
:1043D000B4F910204A4B1A80444B93F89D200132C7
:1043E00083F89D2093F89E20013283F89E2009B027
:1043F00030BD3E4A536FB2F8641001310791D2F8D4
:1044000090100691D2F88C100591D2F88810049182
:10441000D2F884100391D2F880100291D16F0191EB
:10442000926F009204224249424801F06FF83848E6
:10443000FFF7F8FA2028FAD13E4C2046FCF7A6FAFE
:1044400082B221463248FFF767F990E73048FFF71C
:10445000E9FA2028FAD1334C2046FCF797FA82B2C9
:1044600021462B48FFF758F9204BFF2283F89D2067
:1044700093F89E30132B9ED110211D48FDF788FC28
:104480002D4C20704FF400411B48FDF781FC2B4B55
:1044900018702B4B1B88154AB2F864100691B2F8BD
:1044A00096100591B2F894100491B2F85E20039230
:1044B000227802920190234A128800920322224914
:1044C000224801F023F81248FFF7ACFA2028FAD16D
:1044D0001E4C2046FCF75AFA82B221460C48FFF7E0
:1044E0001BF9024BFF2283F89E2064E7F8010020AD
:1044F000000C0140C0100020000801409A03002079
:10450000A4040020BA020020446D0008EC0400203E
:104510006C060020B602002098030020AC060020A4
:10452000886D00089C050020DC100020440300205A
:10453000606D0008C0020020F8100020CC100020A0
:10454000FA100020B8020020A86D0008EC05002039
:10455000704730B585B005460C781A238DF80C30BD
:104560008DF80D2064230093022303AA21462846D8
:10457000FDF7CEFE0028F5D105B030BD30B585B0D1
:1045800005460C7819238DF80C308DF80D200A2380
:104590000093022303AA21462846FDF7B9FE00280E
:1045A000F5D105B030BD2DE9F04184B005460F4688
:1045B000164691F800801C238DF80E301FFA88F4FF
:1045C0000A23009301230DF10E0221462846FDF730
:1045D0009FFE0028F2D10A23009301230DF10F0260
:1045E00021462846FDF756FF0028F4D19DF80F30EC
:1045F00023F018035BB243EAC6038DF80F300A2399
:10460000009301230DF10F0221462846FDF780FE9D
:104610000028F4D1032E06D8DFE806F002090D11B8
:104620004FF06253BB60002004B0BDE8F0814FF052
:104630006453BB60F7E74FF06653BB60F3E74FF09E
:104640006853BB60EFE700002DE9F04184B00546F8
:104650000F46164691F800801B238DF80E301FFA86
:1046600088F40A23009301230DF10E022146284607
:10467000FDF74EFE0028F2D10A23009301230DF12D
:104680000F0221462846FDF705FF0028F4D19DF8CA
:104690000F3023F018035BB243EAC6038DF80F30E6
:1046A0000A23009301230DF10F0221462846FDF74E
:1046B0002FFE0028F4D1032E05D8DFE806F002080B
:1046C0000B0E074B7B60002004B0BDE8F081054B6A
:1046D0007B60F8E7044B7B60F5E7044B7B60F2E717
:1046E0002D23FA3B2D237A3C90C1F93C90C1793DB2
:1046F000F0B585B006460D461F4675238DF80F3080
:1047000042F0D0020A7094B2052302222146FEF73D
:104710003BF810B1012005B0F0BD0A23009301233E
:104720000DF10F0221463046FDF7F2FD08B10120E0
:10473000F1E70A23009301230DF10E0221463046D2
:10474000FDF7A8FE68BB9DF80E30682B01D0032052
:10475000E1E76B238DF80C3000238DF80D300A2330
:104760000093022303AA21463046FDF7D1FD08B18C
:104770000120D0E7052229463046FFF7EAFE012254
:1047800029463046FFF7FAFE3A4629463046FFF7FB
:104790000AFF9DF8282029463046FFF755FF0020E4
:1047A000B9E70120B7E7F0B587B005460F463B23D0
:1047B0008DF80F300E78B4B20A23009301230DF167
:1047C0000F0221462846FDF7A3FD0028F3D10A2356
:1047D0000093062304AA21462846FDF75BFE002825
:1047E000F5D19DF810209DF8113043EA0223BB81DA
:1047F0009DF812209DF8133043EA0223FB819DF8B7
:1048000014209DF8153043EA02233B8207B0F0BD27
:1048100000B583B0244B9A6942F001029A619A690B
:1048200002F001020092009ADA6942F08052DA61E5
:10483000DB6903F080530193019B0420FCF7C6FF62
:10484000002211466FF00B00FCF7D2FF0022114648
:104850006FF00A00FCF7CCFF002211466FF0090050
:10486000FCF7C6FF002211466FF00400FCF7C0FF02
:10487000002211466FF00300FCF7BAFF0022114638
:104880006FF00100FCF7B4FF002211464FF0FF303B
:10489000FCF7AEFF054A536823F0E06343F0007372
:1048A000536003B05DF804FB0010024000000140BB
:1048B00002681F4B9A4200D0704730B587B004465B
:1048C00003F56C439A6942F400729A619B6903F4A0
:1048D00000730193019BF82302930325039502A91A
:1048E0001448FDF76BF901230293039502A91248BE
:1048F000FDF764F91148124B0360002343608360A5
:104900008022C2604FF4007202614FF40062426183
:1049100020228261C361FCF7EDFF20B9074B2362BF
:104920005C6207B030BD81210648FFF711FEF5E754
:104930000024014000080140000C0140B80600209E
:1049400008000240C46D000802681C4B9A4200D067
:10495000704730B587B003F5D633DA6942F000729C
:10496000DA61DB6903F000730193019B4FF400638C
:104970000293002403940494114D02A92846FDF7E4
:104980001DF94FF4805302930223039303230593ED
:1049900002A92846FDF712F9224621461320FCF70A
:1049A00027FF1320FCF758FF224621461420FCF76E
:1049B0001FFF1420FCF750FF07B030BD006400401B
:1049C0000008014002680F4B9A4200D0704700B5C2
:1049D00087B04FF44063029312230393032305939C
:1049E00002A90948FDF7EAF8084BDA6942F48002A7
:1049F000DA61DB6903F480030193019B07B05DF882
:104A000004FB00BF00580040000C014000100240B1
:104A100002680E4B9A4200D0704700B583B003F590
:104A20000333DA6942F00202DA61DB6903F0020360
:104A30000193019B012211461D20FCF7D9FE1D2088
:104A4000FCF70AFF03B05DF804FB00BF0004004060
:104A50000268264B9A4200D0704770B586B0044673
:104A600003F558439A6942F480429A619B6903F4C2
:104A700080430193019B4FF400730293022303933D
:104A8000032305931A4E02A93046FDF797F84FF419
:104A90008063029300250395049502A93046FDF733
:104AA0008DF81448144B0360102343608560802305
:104AB000C3600561456185614FF48053C361FCF7B4
:104AC00019FF60B90B4B23635C620022114625205D
:104AD000FCF78EFE2520FCF7BFFE06B070BD40F24D
:104AE00071110648FFF734FDECE700BF00380140C4
:104AF00000080140A804002044000240C46D0008E2
:104B00007047FEE7FEE7FEE7FEE770477047704735
:104B100008B5FCF73FF8FCF7D2FE08BD08B502481F
:104B2000FCF7AAFF08BD00BFB806002008B5024880
:104B3000FCF7A2FF08BD00BFA804002008B502488A
:104B4000FCF746FD08BD00BFEC03002008B5024895
:104B5000FCF73EFD08BD00BFEC03002008B502488D
:104B6000FEF74CFB08BD00BF6004002008B50248FA
:104B7000FEF7C0FE08BD00BF6C0600200F4B1A6890
:104B800042F001021A6059680D4A0A405A601A68D8
:104B900022F0847222F480321A601A6822F4802291
:104BA0001A605A6822F4FE025A604FF41F029A609B
:104BB000044B4FF000629A60704700BF0010024043
:104BC0000000FFF800ED00E0002103E00B4B5B5814
:104BD000435004310A480B4B42189A42F6D30A4A12
:104BE00002E0002342F8043B084B9A42F9D3FFF756
:104BF000C5FF00F00FF8FFF7F5F97047487000089F
:104C000000000020DC010020DC0100200011002059
:104C1000FEE7000070B500250C4E0D4CA41BA4103F
:104C2000A54209D102F06AF800250A4E0A4CA41BDD
:104C3000A410A54205D170BD56F82530984701351E
:104C4000EEE756F8253098470135F2E74070000846
:104C50004070000840700008447000080346024499
:104C6000934200D1704703F8011BF9E7002B2DE9AF
:104C7000F0471E46BBBF03F100431E4600232D2311
:104C800088B0149FDDE9121A27F02007462F14463A
:104C9000109D0B7004D0452F00D10135022300E098
:104CA000032307AA049206AACDE902A2CDE90035A2
:104CB0002246334600F0D8FC472F804602D1119B94
:104CC000DB0726D5462F08EB050911D198F80030EF
:104CD000302B0AD10022002320463146FBF7B4FED8
:104CE00018B9C5F10105CAF80050DAF80030994446
:104CF0000022002320463146FBF7A6FE38B93022B9
:104D0000079B4B4505D2591C07911A70F8E7CDF85F
:104D10001C904046079B159AA3EB0803136008B04C
:104D2000BDE8F087F7B50029B4BF2D232B23044637
:104D3000B8BF4942092904F8022B437021DD0DF167
:104D400007031F460A2691FBF6F506FB1511092DF0
:104D500001F1300103F8011C03F1FF32294609DC9F
:104D60003031023B02F8011CBB42224604D3101A28
:104D700003B0F0BD1346E6E713F8012B04F8012B4E
:104D8000F2E7302319448370021DC170EFE7000081
:104D90002DE9F04F91B00C461A9F93461E460546EA
:104DA00001F016FA036818460993FBF7EFFD00239C
:104DB0000E933B680A90073323F0070303F10802C0
:104DC00094F81880D4F800A03A60D3E90023C4E92D
:104DD0001223D4E9127929F000430B934FF0FF32EC
:104DE000A64B38460B99FBF761FE68BB4FF0FF32CC
:104DF000A24B38460B99FBF73BFE28BB0022002351
:104E000038464946FBF72AFE10B12D2384F843307B
:104E10009B4F9C4BB8F1470F98BF1F4603234FF0A1
:104E2000000923612AF00403236000965B460FAA61
:104E30002146284600F0E2F9013040F090804FF022
:104E4000FF3011B0BDE8F08F3A464B463846494630
:104E5000FBF72CFE10B18C4F8C4BDBE763684AF4F8
:104E60008062591C0DA80EA940D1062363604FF043
:104E7000000C0DF13303CDE9012363682260CDE915
:104E8000030800933A464B46CDE9051C2846FFF738
:104E9000EDFE08F0DF03472B074609D10D9BD81C18
:104EA00002DB6268934247DDA8F102085FFA88F8E6
:104EB000B8F1650F0D9924D80139424604F150002C
:104EC0000D91FFF72FFF0E9A81461318012A2361D7
:104ED00002DC2268D10701D5013323619DF833300C
:104EE000002BA2D02D2384F843309EE7B8F1670F42
:104EF00000F06E81B8F1470FB9D1002BB7D1012373
:104F0000B4E7B8F1660F19D1002963680CDD21619F
:104F100013B92268D20702D501330B4423610D9BDC
:104F20004FF00009A365D9E713B92268D00701D56E
:104F30000233F3E70123F1E74FF06708DDE90D32B3
:104F4000934205DB22682361D107E8D50133E5E709
:104F5000002BCCBF0123C3F102031344DEE7236817
:104F60005A0507D423693A4659462846B0470130C6
:104F700029D164E7B8F1650F40F2D780D4E9120176
:104F800000220023FBF760FD88B30123404A594605
:104F90002846B04701303FF452AFDDE90D239A4275
:104FA00002DB2368D8070ED5DDE9092359462846D8
:104FB000B04701303FF443AF002704F11A080E9BBD
:104FC000013BBB4209DC23689F0700F1FD80E068DC
:104FD0000F9B9842B8BF184633E701234246594613
:104FE0002846B04701303FF42AAF0137E7E70D9B71
:104FF000002B2BDC0123264A59462846B0470130B6
:105000003FF41DAF0D9B23B90E9B13B92368D9073D
:10501000D9D5DDE9092359462846B04701303FF488
:105020000EAF4FF0000804F11A090D9B5B42434597
:1050300001DC0E9B97E701234A4659462846B047B4
:1050400001303FF4FCAE08F10108EEE70E9AA36DC3
:105050009A42A8BF1A46002A904607DD13465946D1
:105060003A462846B04701303FF4E9AE04F11A034E
:105070004FF0000A28EAE8780B9315E0FFFFEF7F76
:10508000E46D0008E06D0008EC6D0008E86D0008B4
:10509000F06D000801230B9A59462846B0470130AD
:1050A0003FF4CDAE0AF1010AD4F85890A9EB0803F9
:1050B0005345EFDCDDE90D239A424F4414DB2368AE
:1050C000DA0711D40E9B0D99A3EB0902A3EB01099A
:1050D0009145A8BF9146B9F1000F0DDC002729EAE0
:1050E000E97904F11A0818E0DDE909235946284650
:1050F000B0470130E6D1A2E64B463A46594628462B
:10510000B0470130EAD19AE6012342465946284683
:10511000B04701303FF493AE0137DDE90D239B1A10
:10512000A3EB0903BB42EFDC4DE70E9A012A01DC39
:10513000DB0738D501233A4659462846B0470130A7
:105140003FF47DAEDDE9092359462846B0470130DA
:1051500007F101073FF473AED4E912010E9B002260
:1051600003F1FF380023FBF76FFCC0B943463A4612
:1051700059462846B04701300DD160E6012342462A
:1051800059462846B04701303FF459AE01370E9BCF
:10519000013BBB42F2DC4B4604F15002E4E600273F
:1051A00004F11A08F3E70123E1E7012342465946D7
:1051B0002846B04701303FF442AE0137E3680F9A0A
:1051C0009B1ABB42F1DC02E7002704F11908F5E75E
:1051D000002B3FF494AE4FF0000CCDE9051C0DF10F
:1051E00033012260CDE90308CDE9012100933A465D
:1051F0004B462846FFF73AFD07464FE62DE9F047B4
:1052000091461F468A680B6906469342B8BF13460B
:10521000C9F8003091F843200C46DDF8208012B127
:105220000133C9F800302368990642BFD9F800302D
:105230000233C9F80030256815F0060507D104F1DE
:10524000190AE368D9F800209B1AAB4229DC94F8CC
:1052500043302268003318BF012392062ED404F194
:10526000430239463046C047013021D02368E56803
:1052700003F00603042B18BF0025D9F800204FF0D7
:10528000000908BFAD1AA368226908BF25EAE575C1
:105290009342C4BF9B1AED181A344D451AD1002011
:1052A00008E00123524639463046C047013003D159
:1052B0004FF0FF30BDE8F0870135C2E73020E1183C
:1052C00081F843005A1C94F845102244023382F8B6
:1052D0004310C4E70123224639463046C047013017
:1052E000E6D009F10109D8E72DE9F04301F1430CBB
:1052F0000C46097E85B06E291746064698460C9ADC
:1053000000F0B38022D8632936D00AD8002900F0F3
:10531000B980582900F0838004F1420584F84210D6
:1053200032E0642901D06929F6D1206813680506A6
:1053300003F104012AD51B681160002B03DA2D222A
:105340005B4284F843206F480A2239E0732900F059
:105350009D8008D86F2920D07029DDD1236843F0C3
:105360002003236003E0752917D07829D4D178234E
:10537000654884F8453055E0136804F14205191D6D
:105380001B68116084F8423001238CE01B6810F028
:10539000400F116018BF1BB2CFE713682568181DB6
:1053A0001060280601D51B6802E06806FBD51B8843
:1053B0006F2914BF0A2208225248002184F84310A2
:1053C0006568002DA560C0F29580216821F0040178
:1053D0002160002B3DD1002D40F08E806546082ACB
:1053E0000BD12368DB0708D5236962689A42DEBFC8
:1053F000302305F8013C05F1FF35ACEB05032361D3
:10540000CDF800803B4603AA21463046FFF7F6FE62
:1054100001304DD14FF0FF3005B0BDE8F083394881
:1054200084F84510136821681D1D1B6815600A0665
:105430000BD5CA0744BF41F0200121601BB9226887
:1054400022F0200222601022B7E74D0648BF9BB22F
:10545000EFE76546B3FBF2F102FB1133C35C05F8DD
:10546000013D0B460029F5D1B9E713682568181DE1
:105470006169106028061B6801D5196002E06A06A0
:10548000FBD51980002365462361B9E71368191D10
:1054900011601D6862680021284600F0AFFE08B167
:1054A000401B606063682361002384F84330A7E7F2
:1054B00023692A4639463046C0470130AAD02368BE
:1054C0009B0713D4E068039B9842B8BF1846A3E734
:1054D00001234A4639463046C04701309AD001354B
:1054E000E368039A9B1AAB42F2DCEBE7002504F178
:1054F0001909F5E7002BACD1037804F1420584F8D3
:1055000042306CE7F26D0008036E00080EB46FF0D5
:10551000004100B59CB01DAB02900690079104912C
:105520000848094953F8042B0591006802A9019322
:1055300001F068FA0022029B1A701CB05DF804EBBF
:1055400003B070470C0000200802FFFF2DE9F74F61
:1055500003690C698046A342C0F28480013C01F1DA
:10556000140700F1140657F8245056F824000135AA
:10557000B0FBF5F54FEA840C06EB0C0307EB0C09C6
:1055800001939DB34FF0000A3846B646D34650F813
:10559000042B93B205FB03A3120C4FEA134A05FB3D
:1055A00002A29BB2ABEB0303DEF800B04FEA124A53
:1055B0001FFA8BFB5B441FFA82FBDEF8002081455B
:1055C000CBEB124202EB23429BB243EA02434FEA87
:1055D000224B4EF8043BDAD256F80C3033B9019B1B
:1055E000043B9E421A4631D3C8F81040404601F0B1
:1055F00033F8002826DB30464FF0000C013557F811
:10560000041BD0F800E08BB2ACEB03031FFA8EF260
:1056100013440A0CC2EB1E4202EB23429BB243EA44
:105620000243B9454FEA224C40F8043BE7D256F812
:10563000242006EB84032AB9043B9E421A460BD36E
:10564000C8F81040284603B0BDE8F08F1268043B4C
:10565000002AC9D1013CC4E71268043B002AEFD1FB
:10566000013CEAE70020EEE72DE9F04F16461F4621
:10567000456A95B00446DDF88480CDE902673DB9FE
:10568000102000F0B3FD6062C0E901550560C560FF
:10569000636A196851B15A68012393404A608B606C
:1056A000204600F0F8FD0022636A1A603B1EAFBF7F
:1056B0000023012223F000430393ACBFC8F800305D
:1056C000C8F80020AE4BDDF80C8033EA08031BD18C
:1056D00042F20F73209A1360029B23B9C8F31300A0
:1056E000002800F04585229B53B9A64B21E0A64B2C
:1056F00006930833229A1360069815B0BDE8F08F20
:10570000A04B06930333F5E7DDE90267002200238F
:1057100030463946FBF798F9824660B10123209A5A
:105720001360229B002B00F02085984B229A136077
:10573000013B0693E0E712AB019313AB00933246B3
:105740003B46204601F000F8C8F30A558346002D79
:105750007DD0B046C7F3130343F07F5949F4401995
:10576000A5F2FF35CDF840A00022894B40464946BE
:10577000FAF7F2FC7CA3D3E90023FAF7A5FE7CA399
:10578000D3E90023FAF7EAFC064628460F46FAF763
:1057900031FE79A3D3E90023FAF796FE02460B46C1
:1057A00030463946FAF7DAFC06460F46FBF794F91D
:1057B00000228246002330463946FBF74FF948B1B4
:1057C0005046FAF717FE32463B46FBF73DF908B95B
:1057D0000AF1FF3ABAF1160F5AD8DDE902236D49F2
:1057E00001EBCA01D1E90001FBF756F9002851D0BD
:1057F00000230AF1FF3A0D93129B5D1B6B1E07936A
:1058000043BF0023C5F1010907934FF00009BAF126
:10581000000F41DB079BCDF830A0534407930023D2
:1058200008931E9B092B00F28F80052BC4BF043BFD
:105830001E931E9BC8BF0025A3F10203D8BF0125FC
:10584000032B00F28D80DFE803F07B7D2F6FDDE915
:1058500012531D4405F23240202813DDC0F14000F0
:10586000029B08FA00F805F2124023FA00F048EA19
:105870000000FAF7AFFD01238046A1F1F879013D60
:10588000109371E7029BC0F1200003FA00F0F0E7EB
:105890000123B0E70D90AFE7CAF10003089300239E
:1058A000A9EB0A090C93BCE7012309931F9B002B6A
:1058B00074DD984604930022666A7260042202F145
:1058C0001400984271686ED9204600F0B0FC636AFB
:1058D00030601B68B8F10E0F069300F2ED80002DCA
:1058E00000F0EA80DDE90223BAF1000FCDE90E23D2
:1058F00077DD284A0AF00F034FEA2A1602EBC303AA
:10590000F006D3E90023CDE90A2368D5DDE90E01CD
:10591000214B0325D3E90823FAF700FFCDE9020163
:1059200006F00F061C4F4FE0012309931F9B5344C1
:1059300003F1010804934346012BB8BF0123BAE7E2
:105940000023B2E70023F0E70125002309951E9309
:105950004FF0FF3300220493984612231F92AAE7C8
:1059600001230993F4E700BF61436F63A787D23F28
:10597000B3C8608B288AC63FFB799F501344D33F3E
:105980000000F07F1D6E0008146E0008F16D000825
:105990000000F83F506E0008286E000801230493B1
:1059A00098461A46DAE701317160520087E7F1073D
:1059B00008D5DDE90A01D7E90023FAF785FDCDE92D
:1059C0000A01013576100837002EF0D1DDE90A23EF
:1059D000DDE90201FAF7A2FECDE902011BE0022592
:1059E000A0E700F0A480DDE90E01CAF10006A04B9B
:1059F00006F00F0203EBC203D3E90023FAF764FDBC
:105A000002250023CDE902019A4F3611002E40F005
:105A10008380002BE0D10D9B002B00F08A80DDE914
:105A20000223CDE90A23DDE90A010022924BFBF7AC
:105A300015F800287DD0B8F1000F7AD0049B002B18
:105A400036DDDDE90A0100228C4BFAF73DFDCDE998
:105A50000201049E0AF1FF3701352846FAF7CAFC15
:105A6000DDE90223FAF730FD0022854BFAF776FBD9
:105A7000A1F15075CDE90A010B95002E5CD1DDE94D
:105A8000020100227F4BFAF767FB0A9A2B46CDE909
:105A90000201FBF701F8002840F08182DDE90201F4
:105AA0000A9A05F10043FAF7D9FF002840F0758201
:105AB000DDE90E23CDE90223139B002BC0F24B81BD
:105AC000BAF10E0F00F34781694B03EBCA03D3E928
:105AD0000023CDE904231F9B002B80F2D780B8F16F
